:020000040800F2
:1000000008040020450100085103000849030008C6
:100010004D0300088D0100081108000800000000D1
:10002000000000000000000000000000BD03000808
:10003000910100080000000053030008A904000813
:100040005F0100085F0100085F0100085F01000810
:100050005F0100085F0100085F0100085F01000800
:100060005F0100085F0100085F0100085F010008F0
:100070005F0100085F0100085F0100085F010008E0
:100080005F0100085F0100085F0100085F010008D0
:100090005F0100085F0100085F0100085F010008C0
:1000A0005F0100085F0100085F0100085F010008B0
:1000B0005F0100085F0100085F0100085F010008A0
:1000C0005F0100085F0100085F0100085F01000890
:1000D0005F0100085F0100085F0100085F01000880
:1000E0005F0100085F0100085F0100085F01000870
:1000F0005F0100085F0100085F0100085F01000860
:100100005F0100085F0100085F0100085F0100084F
:100110005F0100085F0100085F0100085F0100083F
:100120005F0100085F0100085F0100085F0100082F
:10013000DFF80CD000F018F8004800473508000838
:10014000080400200648804706480047FEE7FEE70F
:10015000FEE7FEE7FEE7FEE7FEE7FEE7FEE7FEE777
:10016000AD04000831010008064C074D06E0E068C8
:1001700040F0010394E8070098471034AC42F6D3EE
:10018000FFF7DAFFEC0800080C09000800BFFEE7E3
:10019000704701B500BF0098411E00910028FAD1B8
:1001A00008BD2DE9F041024600250026002000236D
:1001B0000024002791F803C00CF00F0591F803C04C
:1001C0000CF0100CBCF1000F03D091F802C04CEA07
:1001D000050591F800C0BCF1000F31D01468002073
:1001E0002BE04FF0010C0CFA00F3B1F800C00CEA60
:1001F00003069E4220D183004FF00F0C0CFA03F748
:10020000BC4305FA03FC4CEA040491F803C0BCF1BA
:10021000280F06D14FF0010C0CFA00FCC2F814C0F4
:100220000AE091F803C0BCF1480F05D14FF0010C72
:100230000CFA00FCC2F810C0401C0828D1D314608E
:10024000B1F800C0BCF1FF0F34DD546800202EE08F
:1002500000F1080C4FF0010808FA0CF3B1F800C0E7
:100260000CEA03069E4221D183004FF00F0C0CFADA
:1002700003F7BC4305FA03FC4CEA040491F803C0FD
:10028000BCF1280F05D100F1080C08FA0CF8C2F8EF
:10029000148091F803C0BCF1480F07D100F1080C9D
:1002A0004FF0010808FA0CF8C2F81080401C08282A
:1002B000CED35460BDE8F081F0B50A460023002497
:1002C0000021002500F00046B6F1004F02D11D4E7E
:1002D000F16901E01B4E7168C0F3034583B200F47D
:1002E0004016B6F5401F08D121F07061154E7668B2
:1002F00026F07066134F7E6012E000F48016B6F5AB
:10030000801F06D1032606FA05F4A14341F070616F
:1003100006E0460D360103FA06F6B14341F070617E
:1003200022B1460D360103FA06F6314300F00046CD
:10033000B6F1004F02D1034EF16101E0014E716050
:10034000F0BD00000000014000BFFEE700BFFEE777
:100350007047704729B1064AD2690243044BDA61FB
:1003600004E0034AD2698243014BDA61704700001E
:100370000010024029B1064A92690243044B9A6177
:1003800004E0034A92698243014B9A61704700007E
:100390000010024010B501210220FFF7DBFF012110
:1003A0000420FFF7E7FF01210920FFF7E3FF012108
:1003B0000148FFF781FF10BD00081A00704710B513
:1003C00000F002F810BD00000CB500200190009074
:1003D0003348006840F480303149086000BF30483D
:1003E000006800F4003000900198401C01900098D3
:1003F00018B90198B0F5A06FF1D12948006800F450
:10040000003010B10120009001E000200090009821
:10041000012843D12348006840F0100021490860BA
:100420000846006820F0030008600846006840F0B5
:10043000020008601A484068194948600846406848
:1004400048600846406840F480604860084640685C
:1004500020F47C1048600846406840F4E81048608A
:100460000846006840F08070086000BF0C480068D3
:1004700000F000700028F9D00948406820F003001F
:10048000074948600846406840F00200486000BFE5
:100490000348406800F00C000828F9D10CBD0000AA
:1004A00000100240002002407047000010B51348C1
:1004B000006840F001001149086008464068104992
:1004C00008400E494860084600680E4908400B493C
:1004D00008600846006820F48020086008464068EC
:1004E00020F4FE0048604FF41F008860FFF767FFAC
:1004F0004FF000600449086010BD00000010024089
:100500000000FFF8FFFFF6FE08ED00E008B5C02090
:10051000ADF8000018208DF8030003208DF80200CC
:1005200069460848FFF73DFE2020ADF8000018207E
:100530008DF8030003208DF8020069460248FFF79A
:1005400030FE08BD00080140000C014000B587B036
:1005500040F2E730ADF814000020ADF81000ADF81F
:100560001600ADF8120004A9164800F0FFF860204C
:10057000ADF800000120ADF802000020ADF8080041
:1005800011480088ADF8060069460E4800F038F8BA
:1005900008210C4800F080F80C480088ADF80600EF
:1005A0006946084800F082F80821064800F0D0F8B3
:1005B0000121044800F00CF80121024800F014F871
:1005C00007B000BD00040040000000200200002031
:1005D00021B1028842F08002028004E002884FF6D6
:1005E0007F731A400280704721B1028842F00102F5
:1005F000028004E002884FF6FE731A4002807047C2
:1006000070B5002400220023058C4FF6FE7635409D
:100610000584028C8388048B4FF68F752C40B51EA1
:100620002C400D882C43751E2A400D892A434D8885
:100630002A43144DA8420BD0134DA84208D0134DA5
:10064000A84205D0124DA84202D0124DA84213D1A3
:100650004FF6F7752A404D892A434FF6FB752A401D
:100660008D882A434FF6FF652B404FF6FF552B40F0
:100670008D892B43CD892B4383800483CD88858648
:10068000028470BD002C0140003401400040014054
:1006900000440140004801400A460021018B4FF60A
:1006A000F7731940114301837047000070B50024AF
:1006B00000220023058C4FF6EF7635400584028C2E
:1006C0008388048B48F6FF752C404FF6FF452C407D
:1006D0000D884FF6FF7606EA05252C434FF6DF75A9
:1006E0002A400D8906EA05152A434D8806EA0515B4
:1006F0002A43154DA84202D0144DA8421DD14FF6F1
:100700007F752A404D894FF6FF7606EA05152A4384
:100710004FF6BF752A408D8806EA05152A434FF625
:10072000FF352B404FF2FF752B408D8906EA85057A
:100730002B43CD8906EA85052B4383800483CD882E
:100740000587028470BD0000002C01400034014088
:100750000A460021018B4FF2FF7319404FF6FF73D9
:1007600003EA022319430183704700000022028834
:100770001D4B98420ED01D4B98420BD0B0F1804FCC
:1007800008D01B4B984205D01A4B984202D01A4B06
:10079000984204D14FF68F731A404B881A43174B77
:1007A000984207D0164B984204D04FF6FF431A40A8
:1007B000CB881A4302808B8883850B8803850A4B7C
:1007C00098420BD0094B984208D00E4B984205D066
:1007D0000D4B984202D00D4B984201D10B7A038603
:1007E0000123838270470000002C01400034014047
:1007F0000004004000080040000C004000100040D1
:100800000014004000400140004401400048014005
:1008100000BFFEE702E008C8121F08C1002AFAD193
:1008200070477047002001E001C1121F002AFBD170
:1008300070470000FFF7AEFDFFF768FEFFF786FE8A
:100840004DE02748008800282ADD2648007828281F
:1008500026DA25480088B0F57A7F21DA204800881A
:1008600019381F4908802048008819301E4908801F
:10087000FFF76CFE1B480078401C1A4908704FF6C1
:10088000FF70FFF786FC4FF6FF70FFF782FC4FF614
:10089000FF70FFF77EFC4FF6FF70FFF77AFC1EE05B
:1008A0000F48008819300E4908800F480088193811
:1008B0000D490880FFF74AFE4FF6FF70FFF769FC0D
:1008C0004FF6FF70FFF765FC06480078401C0549AD
:1008D000087008460078502801D100200870B0E761
:1008E0000000002004000020020000200C09000885
:1008F0000000002008000000140800081409000887
:10090000080000200004000024080008E80300009C
:0409100000000000E3
:0400000508000131BD
:00000001FF
